{
  "contractName": "fuckThis_VirtLotto",
  "abi": [
    {
      "constant": true,
      "inputs": [
        {
          "name": "",
          "type": "uint256"
        }
      ],
      "name": "lottoNumbers",
      "outputs": [
        {
          "name": "",
          "type": "uint256"
        }
      ],
      "payable": false,
      "stateMutability": "view",
      "type": "function"
    },
    {
      "constant": true,
      "inputs": [],
      "name": "maximumBetCall",
      "outputs": [
        {
          "name": "",
          "type": "uint256"
        }
      ],
      "payable": false,
      "stateMutability": "view",
      "type": "function"
    },
    {
      "constant": true,
      "inputs": [
        {
          "name": "",
          "type": "uint256"
        }
      ],
      "name": "betPool",
      "outputs": [
        {
          "name": "bettor",
          "type": "address"
        },
        {
          "name": "selectedNumber",
          "type": "uint256"
        },
        {
          "name": "value",
          "type": "uint256"
        }
      ],
      "payable": false,
      "stateMutability": "view",
      "type": "function"
    },
    {
      "constant": true,
      "inputs": [
        {
          "name": "",
          "type": "uint256"
        }
      ],
      "name": "resultTable",
      "outputs": [
        {
          "name": "winNumber",
          "type": "uint256"
        }
      ],
      "payable": false,
      "stateMutability": "view",
      "type": "function"
    },
    {
      "constant": true,
      "inputs": [],
      "name": "minimumSpend",
      "outputs": [
        {
          "name": "",
          "type": "uint256"
        }
      ],
      "payable": false,
      "stateMutability": "view",
      "type": "function"
    },
    {
      "constant": true,
      "inputs": [
        {
          "name": "",
          "type": "address"
        }
      ],
      "name": "currentTicketCount",
      "outputs": [
        {
          "name": "",
          "type": "int256"
        }
      ],
      "payable": false,
      "stateMutability": "view",
      "type": "function"
    },
    {
      "constant": true,
      "inputs": [
        {
          "name": "",
          "type": "uint256"
        }
      ],
      "name": "winnerAddress",
      "outputs": [
        {
          "name": "",
          "type": "address"
        }
      ],
      "payable": false,
      "stateMutability": "view",
      "type": "function"
    },
    {
      "constant": true,
      "inputs": [],
      "name": "result",
      "outputs": [
        {
          "name": "winNumber",
          "type": "uint256"
        }
      ],
      "payable": false,
      "stateMutability": "view",
      "type": "function"
    },
    {
      "constant": true,
      "inputs": [],
      "name": "maximumTicket",
      "outputs": [
        {
          "name": "",
          "type": "int256"
        }
      ],
      "payable": false,
      "stateMutability": "view",
      "type": "function"
    },
    {
      "constant": true,
      "inputs": [],
      "name": "owner",
      "outputs": [
        {
          "name": "",
          "type": "address"
        }
      ],
      "payable": false,
      "stateMutability": "view",
      "type": "function"
    },
    {
      "constant": true,
      "inputs": [],
      "name": "winNumber",
      "outputs": [
        {
          "name": "",
          "type": "uint256"
        }
      ],
      "payable": false,
      "stateMutability": "view",
      "type": "function"
    },
    {
      "inputs": [
        {
          "name": "_lottoNumbers",
          "type": "uint256[]"
        },
        {
          "name": "_maximumBetCall",
          "type": "uint256"
        },
        {
          "name": "_maximumTicket",
          "type": "int256"
        },
        {
          "name": "_minimumSpend",
          "type": "uint256"
        }
      ],
      "payable": false,
      "stateMutability": "nonpayable",
      "type": "constructor"
    },
    {
      "constant": false,
      "inputs": [
        {
          "name": "selectedNumber",
          "type": "uint256"
        }
      ],
      "name": "pickNumber",
      "outputs": [],
      "payable": true,
      "stateMutability": "payable",
      "type": "function"
    },
    {
      "constant": true,
      "inputs": [
        {
          "name": "bettor",
          "type": "address"
        }
      ],
      "name": "checkValidNumberOfTicket",
      "outputs": [
        {
          "name": "",
          "type": "bool"
        }
      ],
      "payable": false,
      "stateMutability": "view",
      "type": "function"
    },
    {
      "constant": false,
      "inputs": [],
      "name": "spinAndDistributePrize",
      "outputs": [],
      "payable": true,
      "stateMutability": "payable",
      "type": "function"
    },
    {
      "constant": true,
      "inputs": [],
      "name": "getCurrentTotalBet",
      "outputs": [
        {
          "name": "totalBetAmmount",
          "type": "uint256"
        }
      ],
      "payable": false,
      "stateMutability": "view",
      "type": "function"
    },
    {
      "constant": true,
      "inputs": [],
      "name": "getWinner",
      "outputs": [
        {
          "name": "_winnerAddress",
          "type": "address[]"
        }
      ],
      "payable": false,
      "stateMutability": "view",
      "type": "function"
    },
    {
      "constant": true,
      "inputs": [],
      "name": "getWinNumber",
      "outputs": [
        {
          "name": "_winNumber",
          "type": "uint256"
        }
      ],
      "payable": false,
      "stateMutability": "view",
      "type": "function"
    },
    {
      "constant": false,
      "inputs": [],
      "name": "resetResult",
      "outputs": [],
      "payable": false,
      "stateMutability": "nonpayable",
      "type": "function"
    },
    {
      "constant": false,
      "inputs": [],
      "name": "kill",
      "outputs": [],
      "payable": false,
      "stateMutability": "nonpayable",
      "type": "function"
    }
  ],
  "bytecode": "0x608060405234801561001057600080fd5b5060405161137838038061137883398101806040528101908080518201929190602001805190602001909291908051906020019092919080519060200190929190505050336000806101000a81548173ffffffffffffffffffffffffffffffffffffffff021916908373ffffffffffffffffffffffffffffffffffffffff16021790555060e060405190810160405280600160ff168152602001600260ff168152602001600360ff168152602001600460ff168152602001600560ff168152602001600660ff168152602001600760ff1681525060039060076100f4929190610113565b508260048190555080600681905550816005819055505050505061018a565b828054828255906000526020600020908101928215610154579160200282015b82811115610153578251829060ff16905591602001919060010190610133565b5b5090506101619190610165565b5090565b61018791905b8082111561018357600081600090555060010161016b565b5090565b90565b6111df806101996000396000f300608060405260043610610107576000357c0100000000000000000000000000000000000000000000000000000000900463ffffffff168063022b8e3f1461010c5780630878311b1461016757806319a6639c146101a85780631a93f07f146101d35780631bb22cf7146101fe578063214fa2cc1461027957806332820cda1461029957806341c0e1b5146102da578063428f180c146102f1578063456cf2f21461031c57806347ad2dcd146103335780634e3da97f1461038a5780635544c15c1461039457806365372147146104015780636f2f7a571461042c578063829a2812146104575780638da5cb5b146104825780638e7ea5b2146104d9578063a948915b14610545575b600080fd5b34801561011857600080fd5b5061014d600480360381019080803573ffffffffffffffffffffffffffffffffffffffff169060200190929190505050610570565b604051808215151515815260200191505060405180910390f35b34801561017357600080fd5b5061019260048036038101908080359060200190929190505050610620565b6040518082815260200191505060405180910390f35b3480156101b457600080fd5b506101bd610643565b6040518082815260200191505060405180910390f35b3480156101df57600080fd5b506101e8610692565b6040518082815260200191505060405180910390f35b34801561020a57600080fd5b5061022960048036038101908080359060200190929190505050610698565b604051808473ffffffffffffffffffffffffffffffffffffffff1673ffffffffffffffffffffffffffffffffffffffff168152602001838152602001828152602001935050505060405180910390f35b610297600480360381019080803590602001909291905050506106f1565b005b3480156102a557600080fd5b506102c460048036038101908080359060200190929190505050610888565b6040518082815260200191505060405180910390f35b3480156102e657600080fd5b506102ef6108b5565b005b3480156102fd57600080fd5b50610306610946565b6040518082815260200191505060405180910390f35b34801561032857600080fd5b5061033161094c565b005b34801561033f57600080fd5b50610374600480360381019080803573ffffffffffffffffffffffffffffffffffffffff16906020019092919050505061099f565b6040518082815260200191505060405180910390f35b6103926109b7565b005b3480156103a057600080fd5b506103bf60048036038101908080359060200190929190505050610ed5565b604051808273ffffffffffffffffffffffffffffffffffffffff1673ffffffffffffffffffffffffffffffffffffffff16815260200191505060405180910390f35b34801561040d57600080fd5b50610416610f13565b6040518082815260200191505060405180910390f35b34801561043857600080fd5b50610441610f1f565b6040518082815260200191505060405180910390f35b34801561046357600080fd5b5061046c610f29565b6040518082815260200191505060405180910390f35b34801561048e57600080fd5b50610497610f2f565b604051808273ffffffffffffffffffffffffffffffffffffffff1673ffffffffffffffffffffffffffffffffffffffff16815260200191505060405180910390f35b3480156104e557600080fd5b506104ee610f54565b6040518080602001828103825283818151815260200191508051906020019060200280838360005b83811015610531578082015181840152602081019050610516565b505050509050019250505060405180910390f35b34801561055157600080fd5b5061055a610fe2565b6040518082815260200191505060405180910390f35b6000806000809150600090505b600880549050811015610612578373ffffffffffffffffffffffffffffffffffffffff166008828154811015156105b057fe5b906000526020600020906003020160000160009054906101000a900473ffffffffffffffffffffffffffffffffffffffff1673ffffffffffffffffffffffffffffffffffffffff161415610605576001820191505b808060010191505061057d565b600554821292505050919050565b60038181548110151561062f57fe5b906000526020600020016000915090505481565b60008060009150600090505b60088054905081101561068e5760088181548110151561066b57fe5b90600052602060002090600302016002015482019150808060010191505061064f565b5090565b60045481565b6008818154811015156106a757fe5b90600052602060002090600302016000915090508060000160009054906101000a900473ffffffffffffffffffffffffffffffffffffffff16908060010154908060020154905083565b600654341015151561070257600080fd5b61070b33610570565b151561071657600080fd5b3373ffffffffffffffffffffffffffffffffffffffff166108fc349081150290604051600060405180830381858888f1935050505015801561075c573d6000803e3d6000fd5b5060086060604051908101604052803373ffffffffffffffffffffffffffffffffffffffff168152602001838152602001348152509080600181540180825580915050906001820390600052602060002090600302016000909192909190915060008201518160000160006101000a81548173ffffffffffffffffffffffffffffffffffffffff021916908373ffffffffffffffffffffffffffffffffffffffff16021790555060208201518160010155604082015181600201555050506004546008805490501415610836576108316109b7565b610885565b6001600c60003373ffffffffffffffffffffffffffffffffffffffff1673ffffffffffffffffffffffffffffffffffffffff168152602001908152602001600020600082825401925050819055505b50565b60078181548110151561089757fe5b90600052602060002090600302016000915090508060020154905081565b6000809054906101000a900473ffffffffffffffffffffffffffffffffffffffff1673ffffffffffffffffffffffffffffffffffffffff163373ffffffffffffffffffffffffffffffffffffffff161415610944576000809054906101000a900473ffffffffffffffffffffffffffffffffffffffff1673ffffffffffffffffffffffffffffffffffffffff16ff5b565b60065481565b6001600061095a9190611020565b60006002819055506009600080820160006109759190611041565b6001820160006109859190611041565b600282016000905550506008600061099d9190611041565b565b600c6020528060005260406000206000915090505481565b6000806000806109c5610fe8565b600281905550600254600960020181905550600092505b600880549050831015610d91576008838154811015156109f857fe5b90600052602060002090600302016002015484019350600254600884815481101515610a2057fe5b9060005260206000209060030201600101541415610c33576009600001600884815481101515610a4c57fe5b9060005260206000209060030201908060018154018082558091505090600182039060005260206000209060030201600090919290919091506000820160009054906101000a900473ffffffffffffffffffffffffffffffffffffffff168160000160006101000a81548173ffffffffffffffffffffffffffffffffffffffff021916908373ffffffffffffffffffffffffffffffffffffffff16021790555060018201548160010155600282015481600201555050506001600884815481101515610b1457fe5b906000526020600020906003020160000160009054906101000a900473ffffffffffffffffffffffffffffffffffffffff1690806001815401808255809150509060018203906000526020600020016000909192909190916101000a81548173ffffffffffffffffffffffffffffffffffffffff021916908373ffffffffffffffffffffffffffffffffffffffff160217905550506000600c6000600886815481101515610bbe57fe5b906000526020600020906003020160000160009054906101000a900473ffffffffffffffffffffffffffffffffffffffff1673ffffffffffffffffffffffffffffffffffffffff1673ffffffffffffffffffffffffffffffffffffffff16815260200190815260200160002081905550610d84565b6009600101600884815481101515610c4757fe5b9060005260206000209060030201908060018154018082558091505090600182039060005260206000209060030201600090919290919091506000820160009054906101000a900473ffffffffffffffffffffffffffffffffffffffff168160000160006101000a81548173ffffffffffffffffffffffffffffffffffffffff021916908373ffffffffffffffffffffffffffffffffffffffff16021790555060018201548160010155600282015481600201555050506000600c6000600886815481101515610d1357fe5b906000526020600020906003020160000160009054906101000a900473ffffffffffffffffffffffffffffffffffffffff1673ffffffffffffffffffffffffffffffffffffffff1673ffffffffffffffffffffffffffffffffffffffff168152602001908152602001600020819055505b82806001019350506109dc565b60076009908060018154018082558091505090600182039060005260206000209060030201600090919290919091506000820181600001908054610dd6929190611065565b506001820181600101908054610ded929190611065565b506002820154816002015550505060006009600001805490501115610ecf5760096000018054905084811515610e1f57fe5b049150600090505b600960000180549050831015610ece57600960000181815481101515610e4957fe5b906000526020600020906003020160000160009054906101000a900473ffffffffffffffffffffffffffffffffffffffff1673ffffffffffffffffffffffffffffffffffffffff166108fc839081150290604051600060405180830381858888f19350505050158015610ec0573d6000803e3d6000fd5b508080600101915050610e27565b5b50505050565b600181815481101515610ee457fe5b906000526020600020016000915054906101000a900473ffffffffffffffffffffffffffffffffffffffff1681565b60098060020154905081565b6000600254905090565b60055481565b6000809054906101000a900473ffffffffffffffffffffffffffffffffffffffff1681565b60606001805480602002602001604051908101604052809291908181526020018280548015610fd857602002820191906000526020600020905b8160009054906101000a900473ffffffffffffffffffffffffffffffffffffffff1673ffffffffffffffffffffffffffffffffffffffff1681526020019060010190808311610f8e575b5050505050905090565b60025481565b6000600a4244604051808381526020018281526020019250505060405180910390206001900481151561101757fe5b0660ff16905090565b508054600082559060005260206000209081019061103e9190611138565b50565b5080546000825560030290600052602060002090810190611062919061115d565b50565b8280548282559060005260206000209060030281019282156111275760005260206000209160030282015b828111156111265782826000820160009054906101000a900473ffffffffffffffffffffffffffffffffffffffff168160000160006101000a81548173ffffffffffffffffffffffffffffffffffffffff021916908373ffffffffffffffffffffffffffffffffffffffff1602179055506001820154816001015560028201548160020155505091600301919060030190611090565b5b509050611134919061115d565b5090565b61115a91905b8082111561115657600081600090555060010161113e565b5090565b90565b6111b091905b808211156111ac57600080820160006101000a81549073ffffffffffffffffffffffffffffffffffffffff02191690556001820160009055600282016000905550600301611163565b5090565b905600a165627a7a7230582022ed1ccfeba06c38efc156947d89c4a0bed971edf48020f86eca921558f2e7320029",
  "source": "pragma solidity ^0.4.18;\n\n\ncontract fuckThis_VirtLotto {\n    address public owner;\n    address[] public winnerAddress;\n    uint public winNumber;\n    uint[] public lottoNumbers;\n    uint public maximumBetCall;\n    int public maximumTicket;\n    uint public minimumSpend;\n    Result[] public resultTable; // List of bet result\n    Proposal[] public betPool; // Current bet pool info\n    Result public result;\n    mapping(address => int) public currentTicketCount;\n\n    struct Proposal {\n        address bettor;\n        uint selectedNumber;\n        uint value;\n    }\n\n    struct Result {\n        Proposal[] winnerProposal;\n        Proposal[] loserProposal;\n        uint winNumber;\n    }\n\n    function fuckThis_VirtLotto(\n        uint[] _lottoNumbers,\n        uint _maximumBetCall,\n        int _maximumTicket,\n        uint _minimumSpend\n    ) public\n    {\n        owner = msg.sender;\n        lottoNumbers = [1,2,3,4,5,6,7];\n        maximumBetCall = _maximumBetCall;\n        minimumSpend = _minimumSpend;\n        maximumTicket = _maximumTicket;\n    }\n\n    function pickNumber(uint selectedNumber) public payable {\n        // 1. Validate:\n        //  - maximum bet of a bettor\n        //  - minimum spend per ticket\n        // 2. If max call reached, do spin and distribute prize\n        require(msg.value >= minimumSpend);\n        require(checkValidNumberOfTicket(msg.sender));\n\n        msg.sender.transfer(msg.value);\n        betPool.push(Proposal({\n            selectedNumber : selectedNumber,\n            bettor : msg.sender,\n            value: msg.value\n        }));\n\n        // Check and do spin\n        if (betPool.length == maximumBetCall) {\n            spinAndDistributePrize();\n        } else {\n            currentTicketCount[msg.sender] += 1;\n        }\n    }\n\n    function checkValidNumberOfTicket(address bettor) public constant returns (bool) {\n        // A bettor can only bet maximumTicket times\n        int ticketCount = 0;\n        for (uint i = 0; i < betPool.length; i++) {\n            if (betPool[i].bettor == bettor) {\n                ticketCount += 1;\n            }\n        }\n        return ticketCount < maximumTicket;\n    }\n\n    function spinAndDistributePrize() public payable {\n        uint totalBetAmmount;\n        winNumber = random();\n        result.winNumber = winNumber;\n        for (uint i = 0; i < betPool.length; i++) {\n            totalBetAmmount += betPool[i].value;\n            if (betPool[i].selectedNumber == winNumber) {\n                result.winnerProposal.push(betPool[i]);\n                winnerAddress.push(betPool[i].bettor);\n                currentTicketCount[betPool[i].bettor] = 0; // reset ticket counter\n            } else {\n                result.loserProposal.push(betPool[i]);\n                currentTicketCount[betPool[i].bettor] = 0; // reset ticket counter\n            }\n        }\n        resultTable.push(result);\n        // Distribute prize\n        if (result.winnerProposal.length > 0) {\n            uint prizePerWinner = totalBetAmmount / result.winnerProposal.length;\n            for (uint j = 0; i < result.winnerProposal.length; j++) {\n                result.winnerProposal[j].bettor.transfer(prizePerWinner);\n            }\n        }\n    }\n\n    function getCurrentTotalBet() public constant returns (uint totalBetAmmount) {\n        totalBetAmmount = 0;\n        for (uint i = 0; i < betPool.length; i++) {\n            totalBetAmmount += betPool[i].value;\n        }\n    }\n\n    function getWinner() public constant returns (address[] _winnerAddress) {\n        _winnerAddress = winnerAddress;\n    }\n\n    function getWinNumber() public constant returns (uint _winNumber) {\n        _winNumber = winNumber;\n    }\n\n    function resetResult () public {\n        delete winnerAddress;\n        winNumber = 0;\n        delete result;\n        delete betPool;\n    }\n\n    function kill() public {\n        if (msg.sender == owner) {\n            selfdestruct(owner);\n        }\n    }\n\n    function random() private constant returns (uint) {\n        return uint8(uint256(keccak256(block.timestamp, block.difficulty))%10);\n    }\n}",
  "sourcePath": "/Users/tecsynt_den/Downloads/VirtLotto-master/contracts/fuckThis_VirtLotto.sol",
  "compiler": {
    "name": "solc",
    "version": "0.4.24+commit.e67f0147.Emscripten.clang"
  },
  "schemaVersion": "2.0.0",
  "updatedAt": "2018-06-13T14:46:54.919Z"
}