{
  "contractName": "VirtLotto_3",
  "abi": [
    {
      "constant": true,
      "inputs": [],
      "name": "numberOfBets",
      "outputs": [
        {
          "name": "",
          "type": "uint256"
        }
      ],
      "payable": false,
      "stateMutability": "view",
      "type": "function"
    },
    {
      "constant": true,
      "inputs": [
        {
          "name": "",
          "type": "address"
        }
      ],
      "name": "playerTicketsCount",
      "outputs": [
        {
          "name": "",
          "type": "uint256"
        }
      ],
      "payable": false,
      "stateMutability": "view",
      "type": "function"
    },
    {
      "constant": true,
      "inputs": [],
      "name": "maxAmountOfTickets",
      "outputs": [
        {
          "name": "",
          "type": "uint256"
        }
      ],
      "payable": false,
      "stateMutability": "view",
      "type": "function"
    },
    {
      "constant": true,
      "inputs": [],
      "name": "maxAmountOfBets",
      "outputs": [
        {
          "name": "",
          "type": "uint256"
        }
      ],
      "payable": false,
      "stateMutability": "view",
      "type": "function"
    },
    {
      "constant": true,
      "inputs": [],
      "name": "range",
      "outputs": [
        {
          "name": "",
          "type": "uint256"
        }
      ],
      "payable": false,
      "stateMutability": "view",
      "type": "function"
    },
    {
      "constant": true,
      "inputs": [
        {
          "name": "",
          "type": "uint256"
        }
      ],
      "name": "ticketTypes",
      "outputs": [
        {
          "name": "number",
          "type": "uint256"
        },
        {
          "name": "totalTickets",
          "type": "uint256"
        }
      ],
      "payable": false,
      "stateMutability": "view",
      "type": "function"
    },
    {
      "constant": true,
      "inputs": [],
      "name": "totalBet",
      "outputs": [
        {
          "name": "",
          "type": "uint256"
        }
      ],
      "payable": false,
      "stateMutability": "view",
      "type": "function"
    },
    {
      "anonymous": false,
      "inputs": [
        {
          "indexed": false,
          "name": "winner",
          "type": "address"
        },
        {
          "indexed": false,
          "name": "winningNumber",
          "type": "uint256"
        }
      ],
      "name": "Win",
      "type": "event"
    },
    {
      "constant": false,
      "inputs": [
        {
          "name": "_minimumBet",
          "type": "uint256"
        },
        {
          "name": "_maxAmountOfBets",
          "type": "uint256"
        }
      ],
      "name": "VirtLotto",
      "outputs": [],
      "payable": false,
      "stateMutability": "nonpayable",
      "type": "function"
    },
    {
      "constant": false,
      "inputs": [
        {
          "name": "number",
          "type": "uint256"
        }
      ],
      "name": "pickNumber",
      "outputs": [],
      "payable": true,
      "stateMutability": "payable",
      "type": "function"
    },
    {
      "constant": true,
      "inputs": [
        {
          "name": "player",
          "type": "address"
        }
      ],
      "name": "canPlay",
      "outputs": [
        {
          "name": "",
          "type": "bool"
        }
      ],
      "payable": false,
      "stateMutability": "view",
      "type": "function"
    },
    {
      "constant": false,
      "inputs": [],
      "name": "draw",
      "outputs": [
        {
          "name": "",
          "type": "uint256"
        },
        {
          "name": "",
          "type": "address[]"
        }
      ],
      "payable": true,
      "stateMutability": "payable",
      "type": "function"
    }
  ],
  "bytecode": "0x608060405267016345785d8a000060015560006002556000600355600560045534801561002b57600080fd5b50610bd48061003b6000396000f3006080604052600436106100af576000357c0100000000000000000000000000000000000000000000000000000000900463ffffffff1680630823d5f3146100b45780630eecae211461010f578063214fa2cc146101755780632ca8c6d3146101955780636549e874146101c05780639ab05ee614610217578063bf9130f81461024e578063e08a96cd14610279578063e97206a9146102a4578063e9dbebce146102cf578063fe5e185314610317575b600080fd5b3480156100c057600080fd5b506100f5600480360381019080803573ffffffffffffffffffffffffffffffffffffffff169060200190929190505050610342565b604051808215151515815260200191505060405180910390f35b61011761038e565b6040518083815260200180602001828103825283818151815260200191508051906020019060200280838360005b83811015610160578082015181840152602081019050610145565b50505050905001935050505060405180910390f35b6101936004803603810190808035906020019092919050505061040d565b005b3480156101a157600080fd5b506101aa610626565b6040518082815260200191505060405180910390f35b3480156101cc57600080fd5b50610201600480360381019080803573ffffffffffffffffffffffffffffffffffffffff16906020019092919050505061062c565b6040518082815260200191505060405180910390f35b34801561022357600080fd5b5061024c6004803603810190808035906020019092919080359060200190929190505050610644565b005b34801561025a57600080fd5b506102636106aa565b6040518082815260200191505060405180910390f35b34801561028557600080fd5b5061028e6106af565b6040518082815260200191505060405180910390f35b3480156102b057600080fd5b506102b96106b5565b6040518082815260200191505060405180910390f35b3480156102db57600080fd5b506102fa600480360381019080803590602001909291905050506106ba565b604051808381526020018281526020019250505060405180910390f35b34801561032357600080fd5b5061032c6106de565b6040518082815260200191505060405180910390f35b60006004600760008473ffffffffffffffffffffffffffffffffffffffff1673ffffffffffffffffffffffffffffffffffffffff16815260200190815260200160002054109050919050565b60006060600060606000809054906101000a900473ffffffffffffffffffffffffffffffffffffffff1673ffffffffffffffffffffffffffffffffffffffff163373ffffffffffffffffffffffffffffffffffffffff161415156103f157600080fd5b6103f96106e4565b809250819350505081819350935050509091565b6000600182101580156104215750600a8211155b151561042c57600080fd5b600154341015151561043d57600080fd5b61044633610342565b151561045157600080fd5b6006600083815260200190815260200160002090506060604051908101604052803373ffffffffffffffffffffffffffffffffffffffff168152602001348152602001838152508160020160008360010154815260200190815260200160002060008201518160000160006101000a81548173ffffffffffffffffffffffffffffffffffffffff021916908373ffffffffffffffffffffffffffffffffffffffff16021790555060208201518160010155604082015181600201559050508060010160008154809291906001019190505550600760003373ffffffffffffffffffffffffffffffffffffffff1673ffffffffffffffffffffffffffffffffffffffff1681526020019081526020016000206000815480929190600101919050555061057b3361070d565b15156105e85760053390806001815401808255809150509060018203906000526020600020016000909192909190916101000a81548173ffffffffffffffffffffffffffffffffffffffff021916908373ffffffffffffffffffffffffffffffffffffffff160217905550505b346002600082825401925050819055506003600081548092919060010191905055506004546003541015156106225761061f6106e4565b50505b5050565b60035481565b60076020528060005260406000206000915090505481565b336000806101000a81548173ffffffffffffffffffffffffffffffffffffffff021916908373ffffffffffffffffffffffffffffffffffffffff160217905550600082111561069557816001819055505b60008111156106a657806004819055505b5050565b600481565b60045481565b600a81565b60066020528060005260406000206000915090508060000154908060010154905082565b60025481565b60006060600060606106f46107b0565b91506106ff826107e8565b905081819350935050509091565b600080600090505b6005805490508110156107a5578273ffffffffffffffffffffffffffffffffffffffff1660058281548110151561074857fe5b9060005260206000200160009054906101000a900473ffffffffffffffffffffffffffffffffffffffff1673ffffffffffffffffffffffffffffffffffffffff16141561079857600191506107aa565b8080600101915050610715565b600091505b50919050565b60006001600a424460405180838152602001828152602001925050506040518091039020600190048115156107e157fe5b0601905090565b6060600060606000806000600660008881526020019081526020016000209450846001015460405190808252806020026020018201604052801561083b5781602001602082028038833980820191505090505b509350600092505b846001015483101561094d5784600201600084815260200190815260200160002060000160009054906101000a900473ffffffffffffffffffffffffffffffffffffffff16915081848481518110151561089957fe5b9060200190602002019073ffffffffffffffffffffffffffffffffffffffff16908173ffffffffffffffffffffffffffffffffffffffff16815250507f6747c18256028de8cd2fa276e75d6b4193ac34c1b55fa8e71797ac132d32ad398288604051808373ffffffffffffffffffffffffffffffffffffffff1673ffffffffffffffffffffffffffffffffffffffff1681526020018281526020019250505060405180910390a18280600101935050610843565b600084511115610a4757835160025481151561096557fe5b049050610970610a5d565b6000600281905550600092505b8460010154831015610a4257600073ffffffffffffffffffffffffffffffffffffffff1684848151811015156109af57fe5b9060200190602002015173ffffffffffffffffffffffffffffffffffffffff16141515610a355783838151811015156109e457fe5b9060200190602002015173ffffffffffffffffffffffffffffffffffffffff166108fc829081150290604051600060405180830381858888f19350505050158015610a33573d6000803e3d6000fd5b505b828060010193505061097d565b610a50565b610a4f610a5d565b5b8395505050505050919050565b6000600190505b600a81111515610aa15760066000828152602001908152602001600020600080820160009055600182016000905550508080600101915050610a64565b600090505b600580549050811015610b3c5760076000600583815481101515610ac657fe5b9060005260206000200160009054906101000a900473ffffffffffffffffffffffffffffffffffffffff1673ffffffffffffffffffffffffffffffffffffffff1673ffffffffffffffffffffffffffffffffffffffff168152602001908152602001600020600090558080600101915050610aa6565b6000600581610b4b9190610b57565b50600060038190555050565b815481835581811115610b7e57818360005260206000209182019101610b7d9190610b83565b5b505050565b610ba591905b80821115610ba1576000816000905550600101610b89565b5090565b905600a165627a7a72305820f187b192ad0517368b24f611782be3dba9924d9a76a89d67e394483d8f5aad440029",
  "source": "pragma solidity ^0.4.20;\n\ncontract VirtLotto_3 {\n    struct Ticket {\n        address owner;\n        uint amount;\n        uint number;\n    }\n\n    struct TicketType {\n        uint number;\n        uint totalTickets;\n        mapping(uint => Ticket) tickets;\n    }\n\n    event Win(\n        address winner,\n        uint winningNumber\n    );\n\n    address owner;\n    uint minimumBet = 100 finney;\n    uint public totalBet = 0;\n    uint public numberOfBets = 0;\n    uint public maxAmountOfBets = 5;\n    uint public constant maxAmountOfTickets = 4;\n    uint public constant range = 10;\n    address[] players;\n    mapping(uint => TicketType) public ticketTypes;\n    mapping(address => uint) public playerTicketsCount;\n\n    modifier onlyOwner {\n        require(msg.sender == owner);\n        _;\n    }\n\n    function VirtLotto(uint _minimumBet, uint _maxAmountOfBets) public {\n        owner = msg.sender;\n\n        if (_minimumBet > 0) {\n            minimumBet = _minimumBet;\n        }\n\n        if (_maxAmountOfBets > 0) {\n            maxAmountOfBets = _maxAmountOfBets;\n        }\n    }\n\n    function pickNumber(uint number) public payable {\n        require(number >= 1 && number <= range);\n        require(msg.value >= minimumBet);\n        require(canPlay(msg.sender));\n\n        TicketType storage ticketType = ticketTypes[number];\n\n        ticketType.tickets[ticketType.totalTickets] = Ticket({\n            owner: msg.sender,\n            amount: msg.value,\n            number: number\n            });\n        ticketType.totalTickets++;\n        playerTicketsCount[msg.sender]++;\n\n        if (!playerExists(msg.sender)) {\n            players.push(msg.sender);\n        }\n\n        totalBet += msg.value;\n        numberOfBets++;\n\n        if (numberOfBets >= maxAmountOfBets) {\n            generateWinner();\n        }\n    }\n\n    function canPlay(address player) public view returns (bool) {\n        return playerTicketsCount[player] < maxAmountOfTickets;\n    }\n\n    function draw() payable public onlyOwner  returns (uint, address[]) {\n        uint winningNumber;\n        address[] memory winners;\n\n        (winningNumber, winners) = generateWinner();\n\n        return (winningNumber, winners);\n    }\n\n    function generateWinner() private returns (uint, address[]) {\n        uint winningNumber = generateRandomNumber();\n        address[] memory winners = distributePrizes(winningNumber);\n\n        return (winningNumber, winners);\n    }\n\n    function distributePrizes(uint winningNumber) private returns (address[]) {\n        TicketType storage ticketType = ticketTypes[winningNumber];\n        address[] memory winners = new address[](ticketType.totalTickets);\n\n        for (uint i = 0; i < ticketType.totalTickets; i++) {\n            address winner = ticketType.tickets[i].owner;\n            winners[i] = winner;\n            emit Win(winner, winningNumber);\n        }\n\n        if (winners.length > 0) {\n            uint winnerEtherAmount = totalBet / winners.length;\n\n            resetGame();\n            totalBet = 0;\n\n            for (i = 0; i < ticketType.totalTickets; i++) {\n                if (winners[i] != address(0)) {\n                    winners[i].transfer(winnerEtherAmount);\n                }\n            }\n        } else {\n            resetGame();\n        }\n\n        return winners;\n    }\n\n    function generateRandomNumber() private view returns (uint) {\n        return (uint(keccak256(block.timestamp, block.difficulty)) % range) + 1;\n    }\n\n    function playerExists(address player) private view returns (bool) {\n        for (uint i = 0; i < players.length; i++) {\n            if (players[i] == player) {\n                return true;\n            }\n        }\n\n        return false;\n    }\n\n    function resetGame() private {\n        for (uint i = 1; i <= range; i++) {\n            delete ticketTypes[i];\n        }\n\n        for (i = 0; i < players.length; i++) {\n            delete playerTicketsCount[players[i]];\n        }\n\n        players.length = 0;\n        numberOfBets = 0;\n    }\n}\n",
  "sourcePath": "/Users/tecsynt_den/bootstrap-js/manual/firebase/folder_4_truffle/contracts/Lotto.sol",
  "compiler": {
    "name": "solc",
    "version": "0.4.24+commit.e67f0147.Emscripten.clang"
  },
  "schemaVersion": "2.0.0",
  "updatedAt": "2018-06-11T14:29:31.300Z"
}